{
  "_format": "hh-sol-artifact-1",
  "contractName": "AntiCounterfeit",
  "sourceName": "contracts/AntiCounterfeit.sol",
  "abi": [
    {
      "inputs": [],
      "stateMutability": "nonpayable",
      "type": "constructor"
    },
    {
      "inputs": [
        {
          "internalType": "address",
          "name": "owner",
          "type": "address"
        }
      ],
      "name": "OwnableInvalidOwner",
      "type": "error"
    },
    {
      "inputs": [
        {
          "internalType": "address",
          "name": "account",
          "type": "address"
        }
      ],
      "name": "OwnableUnauthorizedAccount",
      "type": "error"
    },
    {
      "anonymous": false,
      "inputs": [
        {
          "indexed": true,
          "internalType": "address",
          "name": "manufacturer",
          "type": "address"
        }
      ],
      "name": "ManufacturerAdded",
      "type": "event"
    },
    {
      "anonymous": false,
      "inputs": [
        {
          "indexed": true,
          "internalType": "address",
          "name": "previousOwner",
          "type": "address"
        },
        {
          "indexed": true,
          "internalType": "address",
          "name": "newOwner",
          "type": "address"
        }
      ],
      "name": "OwnershipTransferred",
      "type": "event"
    },
    {
      "anonymous": false,
      "inputs": [
        {
          "indexed": true,
          "internalType": "bytes32",
          "name": "productId",
          "type": "bytes32"
        }
      ],
      "name": "ProductRecalled",
      "type": "event"
    },
    {
      "anonymous": false,
      "inputs": [
        {
          "indexed": true,
          "internalType": "bytes32",
          "name": "productId",
          "type": "bytes32"
        },
        {
          "indexed": true,
          "internalType": "address",
          "name": "manufacturer",
          "type": "address"
        }
      ],
      "name": "ProductRegistered",
      "type": "event"
    },
    {
      "anonymous": false,
      "inputs": [
        {
          "indexed": true,
          "internalType": "bytes32",
          "name": "productId",
          "type": "bytes32"
        },
        {
          "indexed": true,
          "internalType": "address",
          "name": "from",
          "type": "address"
        },
        {
          "indexed": true,
          "internalType": "address",
          "name": "to",
          "type": "address"
        }
      ],
      "name": "ProductTransferred",
      "type": "event"
    },
    {
      "inputs": [
        {
          "internalType": "address",
          "name": "_m",
          "type": "address"
        }
      ],
      "name": "addManufacturer",
      "outputs": [],
      "stateMutability": "nonpayable",
      "type": "function"
    },
    {
      "inputs": [
        {
          "internalType": "bytes32",
          "name": "_productId",
          "type": "bytes32"
        }
      ],
      "name": "getProduct",
      "outputs": [
        {
          "components": [
            {
              "internalType": "address",
              "name": "manufacturer",
              "type": "address"
            },
            {
              "internalType": "bytes32",
              "name": "productHash",
              "type": "bytes32"
            },
            {
              "internalType": "uint256",
              "name": "createdAt",
              "type": "uint256"
            },
            {
              "internalType": "enum AntiCounterfeit.Status",
              "name": "status",
              "type": "uint8"
            },
            {
              "internalType": "address",
              "name": "currentOwner",
              "type": "address"
            }
          ],
          "internalType": "struct AntiCounterfeit.Product",
          "name": "",
          "type": "tuple"
        }
      ],
      "stateMutability": "view",
      "type": "function"
    },
    {
      "inputs": [
        {
          "internalType": "address",
          "name": "",
          "type": "address"
        }
      ],
      "name": "manufacturers",
      "outputs": [
        {
          "internalType": "bool",
          "name": "",
          "type": "bool"
        }
      ],
      "stateMutability": "view",
      "type": "function"
    },
    {
      "inputs": [],
      "name": "owner",
      "outputs": [
        {
          "internalType": "address",
          "name": "",
          "type": "address"
        }
      ],
      "stateMutability": "view",
      "type": "function"
    },
    {
      "inputs": [
        {
          "internalType": "bytes32",
          "name": "",
          "type": "bytes32"
        }
      ],
      "name": "products",
      "outputs": [
        {
          "internalType": "address",
          "name": "manufacturer",
          "type": "address"
        },
        {
          "internalType": "bytes32",
          "name": "productHash",
          "type": "bytes32"
        },
        {
          "internalType": "uint256",
          "name": "createdAt",
          "type": "uint256"
        },
        {
          "internalType": "enum AntiCounterfeit.Status",
          "name": "status",
          "type": "uint8"
        },
        {
          "internalType": "address",
          "name": "currentOwner",
          "type": "address"
        }
      ],
      "stateMutability": "view",
      "type": "function"
    },
    {
      "inputs": [
        {
          "internalType": "bytes32",
          "name": "_productId",
          "type": "bytes32"
        }
      ],
      "name": "recallProduct",
      "outputs": [],
      "stateMutability": "nonpayable",
      "type": "function"
    },
    {
      "inputs": [
        {
          "internalType": "bytes32",
          "name": "_productId",
          "type": "bytes32"
        },
        {
          "internalType": "bytes32",
          "name": "_productHash",
          "type": "bytes32"
        },
        {
          "internalType": "address",
          "name": "_owner",
          "type": "address"
        }
      ],
      "name": "registerProduct",
      "outputs": [],
      "stateMutability": "nonpayable",
      "type": "function"
    },
    {
      "inputs": [],
      "name": "renounceOwnership",
      "outputs": [],
      "stateMutability": "nonpayable",
      "type": "function"
    },
    {
      "inputs": [
        {
          "internalType": "address",
          "name": "newOwner",
          "type": "address"
        }
      ],
      "name": "transferOwnership",
      "outputs": [],
      "stateMutability": "nonpayable",
      "type": "function"
    },
    {
      "inputs": [
        {
          "internalType": "bytes32",
          "name": "_productId",
          "type": "bytes32"
        },
        {
          "internalType": "address",
          "name": "_to",
          "type": "address"
        }
      ],
      "name": "transferProduct",
      "outputs": [],
      "stateMutability": "nonpayable",
      "type": "function"
    }
  ],
  "bytecode": "0x608060405234801561001057600080fd5b5033600073ffffffffffffffffffffffffffffffffffffffff168173ffffffffffffffffffffffffffffffffffffffff16036100845760006040517f1e4fbdf700000000000000000000000000000000000000000000000000000000815260040161007b919061019e565b60405180910390fd5b6100938161009960201b60201c565b506101b9565b60008060009054906101000a900473ffffffffffffffffffffffffffffffffffffffff169050816000806101000a81548173ffffffffffffffffffffffffffffffffffffffff021916908373ffffffffffffffffffffffffffffffffffffffff1602179055508173ffffffffffffffffffffffffffffffffffffffff168173ffffffffffffffffffffffffffffffffffffffff167f8be0079c531659141344cd1fd0a4f28419497f9722a3daafe3b4186f6b6457e060405160405180910390a35050565b600073ffffffffffffffffffffffffffffffffffffffff82169050919050565b60006101888261015d565b9050919050565b6101988161017d565b82525050565b60006020820190506101b3600083018461018f565b92915050565b6112cd806101c86000396000f3fe608060405234801561001057600080fd5b506004361061009e5760003560e01c8063715018a611610066578063715018a61461015757806379054391146101615780638da5cb5b1461019557806393eb392c146101b3578063f2fde38b146101cf5761009e565b806304528c74146100a3578063383d36b4146100bf5780633a20e9df146100db5780635f8a5afa1461010b5780636b5eb09c14610127575b600080fd5b6100bd60048036038101906100b89190610d0e565b6101eb565b005b6100d960048036038101906100d49190610d99565b610376565b005b6100f560048036038101906100f09190610d0e565b610560565b6040516101029190610eef565b60405180910390f35b61012560048036038101906101209190610f0a565b610688565b005b610141600480360381019061013c9190610f0a565b61072e565b60405161014e9190610f52565b60405180910390f35b61015f61074e565b005b61017b60048036038101906101769190610d0e565b610762565b60405161018c959493929190610fa9565b60405180910390f35b61019d6107e5565b6040516101aa9190610ffc565b60405180910390f35b6101cd60048036038101906101c89190611017565b61080e565b005b6101e960048036038101906101e49190610f0a565b610a8a565b005b60006001600083815260200190815260200160002090506000816002015403610249576040517f08c379a0000000000000000000000000000000000000000000000000000000008152600401610240906110c7565b60405180910390fd5b8060000160009054906101000a900473ffffffffffffffffffffffffffffffffffffffff1673ffffffffffffffffffffffffffffffffffffffff163373ffffffffffffffffffffffffffffffffffffffff1614806102d957506102aa6107e5565b73ffffffffffffffffffffffffffffffffffffffff163373ffffffffffffffffffffffffffffffffffffffff16145b610318576040517f08c379a000000000000000000000000000000000000000000000000000000000815260040161030f90611133565b60405180910390fd5b60038160030160006101000a81548160ff021916908360038111156103405761033f610e10565b5b0217905550817f18c6ab2538bd725fe09479a98536fce60bf2023632df459b62815bf916cbd3b460405160405180910390a25050565b600060016000848152602001908152602001600020905060008160020154036103d4576040517f08c379a00000000000000000000000000000000000000000000000000000000081526004016103cb906110c7565b60405180910390fd5b3373ffffffffffffffffffffffffffffffffffffffff168160030160019054906101000a900473ffffffffffffffffffffffffffffffffffffffff1673ffffffffffffffffffffffffffffffffffffffff1614610466576040517f08c379a000000000000000000000000000000000000000000000000000000000815260040161045d9061119f565b60405180910390fd5b60008160030160019054906101000a900473ffffffffffffffffffffffffffffffffffffffff169050828260030160016101000a81548173ffffffffffffffffffffffffffffffffffffffff021916908373ffffffffffffffffffffffffffffffffffffffff16021790555060028260030160006101000a81548160ff021916908360038111156104fa576104f9610e10565b5b02179055508273ffffffffffffffffffffffffffffffffffffffff168173ffffffffffffffffffffffffffffffffffffffff16857f2aec68d7e21d2b2b3c0246f4539531f1497e912daff5ebc1e50c4a50cd9a771e60405160405180910390a450505050565b610568610c63565b600160008381526020019081526020016000206040518060a00160405290816000820160009054906101000a900473ffffffffffffffffffffffffffffffffffffffff1673ffffffffffffffffffffffffffffffffffffffff1673ffffffffffffffffffffffffffffffffffffffff16815260200160018201548152602001600282015481526020016003820160009054906101000a900460ff16600381111561061557610614610e10565b5b600381111561062757610626610e10565b5b81526020016003820160019054906101000a900473ffffffffffffffffffffffffffffffffffffffff1673ffffffffffffffffffffffffffffffffffffffff1673ffffffffffffffffffffffffffffffffffffffff16815250509050919050565b610690610b10565b6001600260008373ffffffffffffffffffffffffffffffffffffffff1673ffffffffffffffffffffffffffffffffffffffff16815260200190815260200160002060006101000a81548160ff0219169083151502179055508073ffffffffffffffffffffffffffffffffffffffff167f561138658ca49a8540dc70dcfe64c9026c1c5b9344642242dd6562970f9c127860405160405180910390a250565b60026020528060005260406000206000915054906101000a900460ff1681565b610756610b10565b6107606000610b97565b565b60016020528060005260406000206000915090508060000160009054906101000a900473ffffffffffffffffffffffffffffffffffffffff16908060010154908060020154908060030160009054906101000a900460ff16908060030160019054906101000a900473ffffffffffffffffffffffffffffffffffffffff16905085565b60008060009054906101000a900473ffffffffffffffffffffffffffffffffffffffff16905090565b600260003373ffffffffffffffffffffffffffffffffffffffff1673ffffffffffffffffffffffffffffffffffffffff16815260200190815260200160002060009054906101000a900460ff1661089a576040517f08c379a00000000000000000000000000000000000000000000000000000000081526004016108919061120b565b60405180910390fd5b60006001600085815260200190815260200160002060020154146108f3576040517f08c379a00000000000000000000000000000000000000000000000000000000081526004016108ea90611277565b60405180910390fd5b6040518060a001604052803373ffffffffffffffffffffffffffffffffffffffff1681526020018381526020014281526020016001600381111561093a57610939610e10565b5b81526020018273ffffffffffffffffffffffffffffffffffffffff168152506001600085815260200190815260200160002060008201518160000160006101000a81548173ffffffffffffffffffffffffffffffffffffffff021916908373ffffffffffffffffffffffffffffffffffffffff160217905550602082015181600101556040820151816002015560608201518160030160006101000a81548160ff021916908360038111156109f2576109f1610e10565b5b021790555060808201518160030160016101000a81548173ffffffffffffffffffffffffffffffffffffffff021916908373ffffffffffffffffffffffffffffffffffffffff1602179055509050503373ffffffffffffffffffffffffffffffffffffffff16837fc9484fe818367891478f62bbffa32d87f515bbcb8e28e2106e62c73335747baa60405160405180910390a3505050565b610a92610b10565b600073ffffffffffffffffffffffffffffffffffffffff168173ffffffffffffffffffffffffffffffffffffffff1603610b045760006040517f1e4fbdf7000000000000000000000000000000000000000000000000000000008152600401610afb9190610ffc565b60405180910390fd5b610b0d81610b97565b50565b610b18610c5b565b73ffffffffffffffffffffffffffffffffffffffff16610b366107e5565b73ffffffffffffffffffffffffffffffffffffffff1614610b9557610b59610c5b565b6040517f118cdaa7000000000000000000000000000000000000000000000000000000008152600401610b8c9190610ffc565b60405180910390fd5b565b60008060009054906101000a900473ffffffffffffffffffffffffffffffffffffffff169050816000806101000a81548173ffffffffffffffffffffffffffffffffffffffff021916908373ffffffffffffffffffffffffffffffffffffffff1602179055508173ffffffffffffffffffffffffffffffffffffffff168173ffffffffffffffffffffffffffffffffffffffff167f8be0079c531659141344cd1fd0a4f28419497f9722a3daafe3b4186f6b6457e060405160405180910390a35050565b600033905090565b6040518060a00160405280600073ffffffffffffffffffffffffffffffffffffffff168152602001600080191681526020016000815260200160006003811115610cb057610caf610e10565b5b8152602001600073ffffffffffffffffffffffffffffffffffffffff1681525090565b600080fd5b6000819050919050565b610ceb81610cd8565b8114610cf657600080fd5b50565b600081359050610d0881610ce2565b92915050565b600060208284031215610d2457610d23610cd3565b5b6000610d3284828501610cf9565b91505092915050565b600073ffffffffffffffffffffffffffffffffffffffff82169050919050565b6000610d6682610d3b565b9050919050565b610d7681610d5b565b8114610d8157600080fd5b50565b600081359050610d9381610d6d565b92915050565b60008060408385031215610db057610daf610cd3565b5b6000610dbe85828601610cf9565b9250506020610dcf85828601610d84565b9150509250929050565b610de281610d5b565b82525050565b610df181610cd8565b82525050565b6000819050919050565b610e0a81610df7565b82525050565b7f4e487b7100000000000000000000000000000000000000000000000000000000600052602160045260246000fd5b60048110610e5057610e4f610e10565b5b50565b6000819050610e6182610e3f565b919050565b6000610e7182610e53565b9050919050565b610e8181610e66565b82525050565b60a082016000820151610e9d6000850182610dd9565b506020820151610eb06020850182610de8565b506040820151610ec36040850182610e01565b506060820151610ed66060850182610e78565b506080820151610ee96080850182610dd9565b50505050565b600060a082019050610f046000830184610e87565b92915050565b600060208284031215610f2057610f1f610cd3565b5b6000610f2e84828501610d84565b91505092915050565b60008115159050919050565b610f4c81610f37565b82525050565b6000602082019050610f676000830184610f43565b92915050565b610f7681610d5b565b82525050565b610f8581610cd8565b82525050565b610f9481610df7565b82525050565b610fa381610e66565b82525050565b600060a082019050610fbe6000830188610f6d565b610fcb6020830187610f7c565b610fd86040830186610f8b565b610fe56060830185610f9a565b610ff26080830184610f6d565b9695505050505050565b60006020820190506110116000830184610f6d565b92915050565b6000806000606084860312156110305761102f610cd3565b5b600061103e86828701610cf9565b935050602061104f86828701610cf9565b925050604061106086828701610d84565b9150509250925092565b600082825260208201905092915050565b7f4e6f742072656769737465726564000000000000000000000000000000000000600082015250565b60006110b1600e8361106a565b91506110bc8261107b565b602082019050919050565b600060208201905081810360008301526110e0816110a4565b9050919050565b7f4e6f7420617574686f72697a6564000000000000000000000000000000000000600082015250565b600061111d600e8361106a565b9150611128826110e7565b602082019050919050565b6000602082019050818103600083015261114c81611110565b9050919050565b7f4e6f74206f776e65720000000000000000000000000000000000000000000000600082015250565b600061118960098361106a565b915061119482611153565b602082019050919050565b600060208201905081810360008301526111b88161117c565b9050919050565b7f4e6f7420616e20617070726f766564206d616e75666163747572657200000000600082015250565b60006111f5601c8361106a565b9150611200826111bf565b602082019050919050565b60006020820190508181036000830152611224816111e8565b9050919050565b7f416c726561647920726567697374657265640000000000000000000000000000600082015250565b600061126160128361106a565b915061126c8261122b565b602082019050919050565b6000602082019050818103600083015261129081611254565b905091905056fea264697066735822122032e2281f033c31cae2e32c9f9c857dbc6a9e4c301cb87bad34c40f6866d9339c64736f6c634300081c0033",
  "linkReferences": {},
  "deployedLinkReferences": {}
}